{
  "contractName": "ImageHashStorage",
  "abi": [
    {
      "anonymous": false,
      "inputs": [
        {
          "indexed": false,
          "internalType": "string",
          "name": "message",
          "type": "string"
        },
        {
          "indexed": false,
          "internalType": "string",
          "name": "hash",
          "type": "string"
        }
      ],
      "name": "Error",
      "type": "event"
    },
    {
      "anonymous": false,
      "inputs": [
        {
          "indexed": false,
          "internalType": "string",
          "name": "hash",
          "type": "string"
        }
      ],
      "name": "HashStored",
      "type": "event"
    },
    {
      "anonymous": false,
      "inputs": [
        {
          "indexed": false,
          "internalType": "string",
          "name": "hash",
          "type": "string"
        },
        {
          "indexed": false,
          "internalType": "uint256",
          "name": "rollNumber",
          "type": "uint256"
        },
        {
          "indexed": false,
          "internalType": "string",
          "name": "name",
          "type": "string"
        }
      ],
      "name": "HashStored",
      "type": "event"
    },
    {
      "inputs": [
        {
          "internalType": "string",
          "name": "_hash",
          "type": "string"
        },
        {
          "internalType": "uint256",
          "name": "_rollNumber",
          "type": "uint256"
        },
        {
          "internalType": "string",
          "name": "_name",
          "type": "string"
        }
      ],
      "name": "storeImageHash",
      "outputs": [],
      "stateMutability": "nonpayable",
      "type": "function"
    }
  ],
  "bytecode": "0x608060405234801561001057600080fd5b506106bd806100206000396000f3fe608060405234801561001057600080fd5b506004361061002b5760003560e01c80632da8c9e414610030575b600080fd5b61004a60048036038101906100459190610322565b61004c565b005b60008360405161005c919061041e565b908152602001604051809103902060009054906101000a900460ff161561011b5760008383836040516020016100949392919061053a565b60405160208183030381529060405290507fac283f5b35fa78f7f5e8923cb5db86b4c10c166580c43bb59f1d1d9ae108b70081856040516100d69291906105da565b60405180910390a1806040517f08c379a00000000000000000000000000000000000000000000000000000000081526004016101129190610611565b60405180910390fd5b600160008460405161012d919061041e565b908152602001604051809103902060006101000a81548160ff0219169083151502179055507fff37b688dc94fc6beb95716c5c704bb0bfdc342043f4661efdfe7d0a8ab61a5083838360405161018593929190610642565b60405180910390a1505050565b6000604051905090565b600080fd5b600080fd5b600080fd5b600080fd5b6000601f19601f8301169050919050565b7f4e487b7100000000000000000000000000000000000000000000000000000000600052604160045260246000fd5b6101f9826101b0565b810181811067ffffffffffffffff82111715610218576102176101c1565b5b80604052505050565b600061022b610192565b905061023782826101f0565b919050565b600067ffffffffffffffff821115610257576102566101c1565b5b610260826101b0565b9050602081019050919050565b82818337600083830152505050565b600061028f61028a8461023c565b610221565b9050828152602081018484840111156102ab576102aa6101ab565b5b6102b684828561026d565b509392505050565b600082601f8301126102d3576102d26101a6565b5b81356102e384826020860161027c565b91505092915050565b6000819050919050565b6102ff816102ec565b811461030a57600080fd5b50565b60008135905061031c816102f6565b92915050565b60008060006060848603121561033b5761033a61019c565b5b600084013567ffffffffffffffff811115610359576103586101a1565b5b610365868287016102be565b93505060206103768682870161030d565b925050604084013567ffffffffffffffff811115610397576103966101a1565b5b6103a3868287016102be565b9150509250925092565b600081519050919050565b600081905092915050565b60005b838110156103e15780820151818401526020810190506103c6565b60008484015250505050565b60006103f8826103ad565b61040281856103b8565b93506104128185602086016103c3565b80840191505092915050565b600061042a82846103ed565b915081905092915050565b7f4475706c696361746520696d61676520686173683a2000000000000000000000600082015250565b600061046b6016836103b8565b915061047682610435565b601682019050919050565b7f2c20526f6c6c204e756d6265723a200000000000000000000000000000000000600082015250565b60006104b7600f836103b8565b91506104c282610481565b600f82019050919050565b6000819050919050565b6104e86104e3826102ec565b6104cd565b82525050565b7f2c204e616d653a20000000000000000000000000000000000000000000000000600082015250565b60006105246008836103b8565b915061052f826104ee565b600882019050919050565b60006105458261045e565b915061055182866103ed565b915061055c826104aa565b915061056882856104d7565b60208201915061057782610517565b915061058382846103ed565b9150819050949350505050565b600082825260208201905092915050565b60006105ac826103ad565b6105b68185610590565b93506105c68185602086016103c3565b6105cf816101b0565b840191505092915050565b600060408201905081810360008301526105f481856105a1565b9050818103602083015261060881846105a1565b90509392505050565b6000602082019050818103600083015261062b81846105a1565b905092915050565b61063c816102ec565b82525050565b6000606082019050818103600083015261065c81866105a1565b905061066b6020830185610633565b818103604083015261067d81846105a1565b905094935050505056fea2646970667358221220c119585247dc9357c8ff9b2db97bec946ae4b2d0e05982989ba80795576b017c64736f6c63430008130033",
  "immutableReferences": {},
  "source": "// SPDX-License-Identifier: SEE LICENSE IN LICENSE\r\n\r\npragma solidity >=0.5.0 <0.9.0;\r\n\r\ncontract ImageHashStorage {\r\n    mapping(string => bool) private imageHashes;\r\n    event HashStored(string hash);\r\n\r\n    function storeImageHash(\r\n        string memory _hash,\r\n        uint _rollNumber,\r\n        string memory _name\r\n    ) public {\r\n        if (imageHashes[_hash]) {\r\n            string memory errorMsg = string(\r\n                abi.encodePacked(\r\n                    \"Duplicate image hash: \",\r\n                    _hash,\r\n                    \", Roll Number: \",\r\n                    _rollNumber,\r\n                    \", Name: \",\r\n                    _name\r\n                )\r\n            );\r\n            emit Error(errorMsg, _hash);\r\n            revert(errorMsg);\r\n        } else {\r\n            imageHashes[_hash] = true;\r\n            emit HashStored(_hash, uint256(_rollNumber), _name);\r\n        }\r\n    }\r\n\r\n    event HashStored(string hash, uint rollNumber, string name);\r\n    event Error(string message, string hash);\r\n}\r\n",
  "sourcePath": "C:\\Users\\Nitin\\Desktop\\Project\\contracts\\ImageHashStorage.sol",
  "compiler": {
    "name": "solc",
    "version": "0.8.19+commit.7dd6d404.Emscripten.clang"
  },
  "schemaVersion": "3.4.13",
  "updatedAt": "2023-04-09T16:59:28.693Z",
  "networkType": "ethereum",
  "devdoc": {
    "kind": "dev",
    "methods": {},
    "version": 1
  },
  "userdoc": {
    "kind": "user",
    "methods": {},
    "version": 1
  }
}