{
  "contractName": "ImageHash",
  "abi": [
    {
      "anonymous": false,
      "inputs": [
        {
          "indexed": false,
          "internalType": "string",
          "name": "message",
          "type": "string"
        },
        {
          "indexed": false,
          "internalType": "string",
          "name": "hash",
          "type": "string"
        }
      ],
      "name": "Error",
      "type": "event"
    },
    {
      "anonymous": false,
      "inputs": [
        {
          "indexed": false,
          "internalType": "string",
          "name": "hash",
          "type": "string"
        }
      ],
      "name": "HashStored",
      "type": "event"
    },
    {
      "anonymous": false,
      "inputs": [
        {
          "indexed": false,
          "internalType": "string",
          "name": "hash",
          "type": "string"
        },
        {
          "indexed": false,
          "internalType": "string",
          "name": "rollNumber",
          "type": "string"
        },
        {
          "indexed": false,
          "internalType": "string",
          "name": "name",
          "type": "string"
        }
      ],
      "name": "HashStored",
      "type": "event"
    },
    {
      "inputs": [
        {
          "internalType": "string",
          "name": "_hash",
          "type": "string"
        },
        {
          "internalType": "string",
          "name": "_rollNumber",
          "type": "string"
        },
        {
          "internalType": "string",
          "name": "_name",
          "type": "string"
        }
      ],
      "name": "storeImageHash",
      "outputs": [],
      "stateMutability": "nonpayable",
      "type": "function"
    }
  ],
  "bytecode": "0x608060405234801561001057600080fd5b50610676806100206000396000f3fe608060405234801561001057600080fd5b506004361061002b5760003560e01c80637427fddf14610030575b600080fd5b61004a600480360381019061004591906102ec565b61004c565b005b60008360405161005c9190610404565b908152602001604051809103902060009054906101000a900460ff161561011b576000838383604051602001610094939291906104ff565b60405160208183030381529060405290507fac283f5b35fa78f7f5e8923cb5db86b4c10c166580c43bb59f1d1d9ae108b70081856040516100d692919061059b565b60405180910390a1806040517f08c379a000000000000000000000000000000000000000000000000000000000815260040161011291906105d2565b60405180910390fd5b600160008460405161012d9190610404565b908152602001604051809103902060006101000a81548160ff0219169083151502179055507ffc6a2e9a00c47693dbcabc1355be6ef170ea7e0c57dc43e85b3069951d8166a6838383604051610185939291906105f4565b60405180910390a1505050565b6000604051905090565b600080fd5b600080fd5b600080fd5b600080fd5b6000601f19601f8301169050919050565b7f4e487b7100000000000000000000000000000000000000000000000000000000600052604160045260246000fd5b6101f9826101b0565b810181811067ffffffffffffffff82111715610218576102176101c1565b5b80604052505050565b600061022b610192565b905061023782826101f0565b919050565b600067ffffffffffffffff821115610257576102566101c1565b5b610260826101b0565b9050602081019050919050565b82818337600083830152505050565b600061028f61028a8461023c565b610221565b9050828152602081018484840111156102ab576102aa6101ab565b5b6102b684828561026d565b509392505050565b600082601f8301126102d3576102d26101a6565b5b81356102e384826020860161027c565b91505092915050565b6000806000606084860312156103055761030461019c565b5b600084013567ffffffffffffffff811115610323576103226101a1565b5b61032f868287016102be565b935050602084013567ffffffffffffffff8111156103505761034f6101a1565b5b61035c868287016102be565b925050604084013567ffffffffffffffff81111561037d5761037c6101a1565b5b610389868287016102be565b9150509250925092565b600081519050919050565b600081905092915050565b60005b838110156103c75780820151818401526020810190506103ac565b60008484015250505050565b60006103de82610393565b6103e8818561039e565b93506103f88185602086016103a9565b80840191505092915050565b600061041082846103d3565b915081905092915050565b7f4475706c696361746520696d61676520686173683a2000000000000000000000600082015250565b600061045160168361039e565b915061045c8261041b565b601682019050919050565b7f2c20526f6c6c204e756d6265723a200000000000000000000000000000000000600082015250565b600061049d600f8361039e565b91506104a882610467565b600f82019050919050565b7f2c204e616d653a20000000000000000000000000000000000000000000000000600082015250565b60006104e960088361039e565b91506104f4826104b3565b600882019050919050565b600061050a82610444565b915061051682866103d3565b915061052182610490565b915061052d82856103d3565b9150610538826104dc565b915061054482846103d3565b9150819050949350505050565b600082825260208201905092915050565b600061056d82610393565b6105778185610551565b93506105878185602086016103a9565b610590816101b0565b840191505092915050565b600060408201905081810360008301526105b58185610562565b905081810360208301526105c98184610562565b90509392505050565b600060208201905081810360008301526105ec8184610562565b905092915050565b6000606082019050818103600083015261060e8186610562565b905081810360208301526106228185610562565b905081810360408301526106368184610562565b905094935050505056fea2646970667358221220fef42e62192bdd204b280040b87a44cb60a1d9c32565e24b72f3a40cfe56142264736f6c63430008130033",
  "immutableReferences": {},
  "source": "// SPDX-License-Identifier: SEE LICENSE IN LICENSE\r\npragma solidity >=0.5.0 <0.9.0;\r\n\r\ncontract ImageHash {\r\n    mapping(string => bool) private imageHashes;\r\n    event HashStored(string hash);\r\n\r\n    function storeImageHash(\r\n        string memory _hash,\r\n        string memory _rollNumber,\r\n        string memory _name\r\n    ) public {\r\n        if (imageHashes[_hash]) {\r\n            string memory errorMsg = string(\r\n                abi.encodePacked(\r\n                    \"Duplicate image hash: \",\r\n                    _hash,\r\n                    \", Roll Number: \",\r\n                    _rollNumber,\r\n                    \", Name: \",\r\n                    _name\r\n                )\r\n            );\r\n            emit Error(errorMsg, _hash);\r\n            revert(errorMsg);\r\n        } else {\r\n            imageHashes[_hash] = true;\r\n            emit HashStored(_hash, _rollNumber, _name);\r\n        }\r\n    }\r\n\r\n    event HashStored(string hash, string rollNumber, string name);\r\n    event Error(string message, string hash);\r\n}\r\n",
  "sourcePath": "G:\\Final_Year_Project(2023)\\Blockchain\\Project\\Certificate Validation System Using Blockchain\\contracts\\ImageHash.sol",
  "compiler": {
    "name": "solc",
    "version": "0.8.19+commit.7dd6d404.Emscripten.clang"
  },
  "schemaVersion": "3.4.13",
  "updatedAt": "2023-05-03T12:32:38.520Z",
  "networkType": "ethereum",
  "devdoc": {
    "kind": "dev",
    "methods": {},
    "version": 1
  },
  "userdoc": {
    "kind": "user",
    "methods": {},
    "version": 1
  }
}